:03000000020800F3
:0C080000787FE4F6D8FD75812C020847D3
:1008C00010093F065B4F666D7D077F6F777C395E51
:1008D00079711019777B7D7EB7BBBDBED7DBDDDEBE
:0D08E000E7EBEDEE04297FBFDFEF0108001C
:0B08FB00EF1FAC0670011E4C70F622CF
:10088C00E4FD74292DF8E6F59065906022E4FB7F79
:10089C00267E021208FBED25E025E024192BF8E654
:1008AC00B59008ED25E025E02BF5080BBB04E00D19
:0308BC00BD04CFA9
:0108BF002216
:0D08EE0012088C74092508F8E6F58080F3E7
:10080C000208EEE493A3F8E493A34003F68001F20C
:10081C0008DFF48029E493A3F85407240CC8C333ED
:10082C00C4540F4420C8834004F456800146F6DFBC
:10083C00E4800B01020408102040809008C0E47E84
:10084C00019360BCA3FF543F30E509541FFEE493B1
:10085C00A360010ECF54C025E060A840B8E493A378
:10086C00FAE493A3F8E493A3C8C582C8CAC583CAA3
:10087C00F0A3C8C582C8CAC583CADFE9DEE780BE5B
:0108ED00000A
:00000001FF
